{
  "abi": [
    {
      "inputs": [
        {
          "internalType": "address",
          "name": "snMessaging",
          "type": "address"
        }
      ],
      "stateMutability": "nonpayable",
      "type": "constructor"
    },
    {
      "inputs": [],
      "name": "InvalidPayload",
      "type": "error"
    },
    {
      "inputs": [
        {
          "internalType": "uint256",
          "name": "fromAddress",
          "type": "uint256"
        },
        {
          "internalType": "uint256[]",
          "name": "payload",
          "type": "uint256[]"
        }
      ],
      "name": "consumeMessage",
      "outputs": [],
      "stateMutability": "nonpayable",
      "type": "function"
    },
    {
      "inputs": [
        {
          "internalType": "uint256",
          "name": "fromAddress",
          "type": "uint256"
        },
        {
          "internalType": "uint256[]",
          "name": "payload",
          "type": "uint256[]"
        }
      ],
      "name": "consumeMessageStruct",
      "outputs": [],
      "stateMutability": "nonpayable",
      "type": "function"
    },
    {
      "inputs": [
        {
          "internalType": "uint256",
          "name": "fromAddress",
          "type": "uint256"
        },
        {
          "internalType": "uint256[]",
          "name": "payload",
          "type": "uint256[]"
        }
      ],
      "name": "consumeMessageValue",
      "outputs": [],
      "stateMutability": "nonpayable",
      "type": "function"
    },
    {
      "inputs": [
        {
          "internalType": "uint256",
          "name": "contractAddress",
          "type": "uint256"
        },
        {
          "internalType": "uint256",
          "name": "selector",
          "type": "uint256"
        },
        {
          "internalType": "uint256[]",
          "name": "payload",
          "type": "uint256[]"
        }
      ],
      "name": "sendMessage",
      "outputs": [],
      "stateMutability": "payable",
      "type": "function"
    },
    {
      "inputs": [
        {
          "internalType": "uint256",
          "name": "contractAddress",
          "type": "uint256"
        },
        {
          "internalType": "uint256",
          "name": "selector",
          "type": "uint256"
        },
        {
          "internalType": "uint256",
          "name": "value",
          "type": "uint256"
        }
      ],
      "name": "sendMessageValue",
      "outputs": [],
      "stateMutability": "payable",
      "type": "function"
    }
  ],
  "bytecode": {
    "object": "0x608060405234801561001057600080fd5b506040516107f43803806107f483398101604081905261002f91610054565b600080546001600160a01b0319166001600160a01b0392909216919091179055610084565b60006020828403121561006657600080fd5b81516001600160a01b038116811461007d57600080fd5b9392505050565b610761806100936000396000f3fe60806040526004361061004a5760003560e01c8063207d71191461004f5780637865c6c714610071578063b664383814610091578063bcb4962e146100a4578063c5780d62146100b7575b600080fd5b34801561005b57600080fd5b5061006f61006a3660046104ae565b6100d7565b005b34801561007d57600080fd5b5061006f61008c3660046104ae565b610203565b61006f61009f366004610543565b6102ff565b61006f6100b2366004610616565b610377565b3480156100c357600080fd5b5061006f6100d23660046104ae565b610438565b60005460405162b2775760e61b81526001600160a01b0390911690632c9dd5c09061010a90869086908690600401610642565b6020604051808303816000875af1158015610129573d6000803e3d6000fd5b505050506040513d601f19601f8201168201806040525081019061014d9190610683565b506002811461016f57604051637c6953f960e01b815260040160405180910390fd5b6000828260008181106101845761018461069c565b9050602002013590506000838360018181106101a2576101a261069c565b9050602002013590506000821180156101bb5750600081115b6101fc5760405162461bcd60e51b815260206004820152600d60248201526c496e76616c69642076616c756560981b60448201526064015b60405180910390fd5b5050505050565b60005460405162b2775760e61b81526001600160a01b0390911690632c9dd5c09061023690869086908690600401610642565b6020604051808303816000875af1158015610255573d6000803e3d6000fd5b505050506040513d601f19601f820116820180604052508101906102799190610683565b506001811461029b57604051637c6953f960e01b815260040160405180910390fd5b6000828260008181106102b0576102b061069c565b905060200201359050600081116102f95760405162461bcd60e51b815260206004820152600d60248201526c496e76616c69642076616c756560981b60448201526064016101f3565b50505050565b600054604051633e3aa6c560e01b81526001600160a01b0390911690633e3aa6c5903490610335908790879087906004016106b2565b604080518083038185885af1158015610352573d6000803e3d6000fd5b50505050506040513d601f19601f820116820180604052508101906101fc9190610707565b6040805160018082528183019092526000916020808301908036833701905050905081816000815181106103ad576103ad61069c565b6020908102919091010152600054604051633e3aa6c560e01b81526001600160a01b0390911690633e3aa6c59034906103ee908890889087906004016106b2565b604080518083038185885af115801561040b573d6000803e3d6000fd5b50505050506040513d601f19601f820116820180604052508101906104309190610707565b505050505050565b60005460405162b2775760e61b81526001600160a01b0390911690632c9dd5c09061046b90869086908690600401610642565b6020604051808303816000875af115801561048a573d6000803e3d6000fd5b505050506040513d601f19601f820116820180604052508101906102f99190610683565b6000806000604084860312156104c357600080fd5b83359250602084013567ffffffffffffffff808211156104e257600080fd5b818601915086601f8301126104f657600080fd5b81358181111561050557600080fd5b8760208260051b850101111561051a57600080fd5b6020830194508093505050509250925092565b634e487b7160e01b600052604160045260246000fd5b60008060006060848603121561055857600080fd5b833592506020808501359250604085013567ffffffffffffffff8082111561057f57600080fd5b818701915087601f83011261059357600080fd5b8135818111156105a5576105a561052d565b8060051b604051601f19603f830116810181811085821117156105ca576105ca61052d565b60405291825284820192508381018501918a8311156105e857600080fd5b938501935b82851015610606578435845293850193928501926105ed565b8096505050505050509250925092565b60008060006060848603121561062b57600080fd5b505081359360208301359350604090920135919050565b838152604060208201819052810182905260006001600160fb1b0383111561066957600080fd5b8260051b8085606085013791909101606001949350505050565b60006020828403121561069557600080fd5b5051919050565b634e487b7160e01b600052603260045260246000fd5b6000606082018583526020858185015260606040850152818551808452608086019150828701935060005b818110156106f9578451835293830193918301916001016106dd565b509098975050505050505050565b6000806040838503121561071a57600080fd5b50508051602090910151909290915056fea2646970667358221220a1d3ed864808c39e7f9c9e0d3417123e8acc850a2c30b3fe34961dc232a13bd064736f6c63430008150033",
    "linkReferences": {}
  },
  "methodIdentifiers": {
    "consumeMessage(uint256,uint256[])": "c5780d62",
    "consumeMessageStruct(uint256,uint256[])": "207d7119",
    "consumeMessageValue(uint256,uint256[])": "7865c6c7",
    "sendMessage(uint256,uint256,uint256[])": "b6643838",
    "sendMessageValue(uint256,uint256,uint256)": "bcb4962e"
  },
  "id": 27
}