{
    "contractName": "StarkStateBridge",
    "abi": [
        {
            "inputs": [
                {
                    "internalType": "address",
                    "name": "_worldIDIdentityManager",
                    "type": "address"
                },
                {
                    "internalType": "address",
                    "name": "_starkWorldIDAddress",
                    "type": "address"
                },
                {
                    "internalType": "address",
                    "name": "_snMessaging",
                    "type": "address"
                }
            ],
            "stateMutability": "nonpayable",
            "type": "constructor"
        },
        {
            "inputs": [],
            "name": "AddressZero",
            "type": "error"
        },
        {
            "inputs": [],
            "name": "GasLimitZero",
            "type": "error"
        },
        {
            "inputs": [
                {
                    "internalType": "address",
                    "name": "owner",
                    "type": "address"
                }
            ],
            "name": "OwnableInvalidOwner",
            "type": "error"
        },
        {
            "inputs": [
                {
                    "internalType": "address",
                    "name": "account",
                    "type": "address"
                }
            ],
            "name": "OwnableUnauthorizedAccount",
            "type": "error"
        },
        {
            "anonymous": false,
            "inputs": [
                {
                    "indexed": true,
                    "internalType": "address",
                    "name": "previousOwner",
                    "type": "address"
                },
                {
                    "indexed": true,
                    "internalType": "address",
                    "name": "newOwner",
                    "type": "address"
                }
            ],
            "name": "OwnershipTransferred",
            "type": "event"
        },
        {
            "anonymous": false,
            "inputs": [
                {
                    "indexed": false,
                    "internalType": "uint256",
                    "name": "root",
                    "type": "uint256"
                }
            ],
            "name": "RootPropagated",
            "type": "event"
        },
        {
            "anonymous": false,
            "inputs": [
                {
                    "indexed": false,
                    "internalType": "uint32",
                    "name": "_GasLimit",
                    "type": "uint32"
                }
            ],
            "name": "SetGasLimitPropagateRoot",
            "type": "event"
        },
        {
            "anonymous": false,
            "inputs": [
                {
                    "indexed": false,
                    "internalType": "uint32",
                    "name": "_GasLimit",
                    "type": "uint32"
                }
            ],
            "name": "SetGasLimitSetRootHistoryExpiry",
            "type": "event"
        },
        {
            "anonymous": false,
            "inputs": [
                {
                    "indexed": false,
                    "internalType": "uint32",
                    "name": "_GasLimit",
                    "type": "uint32"
                }
            ],
            "name": "SetGasLimitTransferOwnershipOp",
            "type": "event"
        },
        {
            "anonymous": false,
            "inputs": [
                {
                    "indexed": false,
                    "internalType": "uint256",
                    "name": "rootHistoryExpiry",
                    "type": "uint256"
                }
            ],
            "name": "SetRootHistoryExpiry",
            "type": "event"
        },
        {
            "inputs": [],
            "name": "DEFAULT_STARK_GAS_LIMIT",
            "outputs": [
                {
                    "internalType": "uint32",
                    "name": "",
                    "type": "uint32"
                }
            ],
            "stateMutability": "view",
            "type": "function"
        },
        {
            "inputs": [],
            "name": "owner",
            "outputs": [
                {
                    "internalType": "address",
                    "name": "",
                    "type": "address"
                }
            ],
            "stateMutability": "view",
            "type": "function"
        },
        {
            "inputs": [],
            "name": "propagateRoot",
            "outputs": [],
            "stateMutability": "nonpayable",
            "type": "function"
        },
        {
            "inputs": [],
            "name": "renounceOwnership",
            "outputs": [],
            "stateMutability": "nonpayable",
            "type": "function"
        },
        {
            "inputs": [
                {
                    "internalType": "uint32",
                    "name": "_starkGasLimit",
                    "type": "uint32"
                }
            ],
            "name": "setGasLimitPropagateRoot",
            "outputs": [],
            "stateMutability": "nonpayable",
            "type": "function"
        },
        {
            "inputs": [
                {
                    "internalType": "uint32",
                    "name": "_starkGasLimit",
                    "type": "uint32"
                }
            ],
            "name": "setGasLimitSetRootHistoryExpiry",
            "outputs": [],
            "stateMutability": "nonpayable",
            "type": "function"
        },
        {
            "inputs": [
                {
                    "internalType": "uint32",
                    "name": "_starkGasLimit",
                    "type": "uint32"
                }
            ],
            "name": "setGasLimitTransferOwnership",
            "outputs": [],
            "stateMutability": "nonpayable",
            "type": "function"
        },
        {
            "inputs": [
                {
                    "internalType": "uint256",
                    "name": "_rootHistoryExpiry",
                    "type": "uint256"
                }
            ],
            "name": "setRootHistoryExpiry",
            "outputs": [],
            "stateMutability": "nonpayable",
            "type": "function"
        },
        {
            "inputs": [],
            "name": "snMessaging",
            "outputs": [
                {
                    "internalType": "address",
                    "name": "",
                    "type": "address"
                }
            ],
            "stateMutability": "view",
            "type": "function"
        },
        {
            "inputs": [],
            "name": "starkWorldIDAddress",
            "outputs": [
                {
                    "internalType": "address",
                    "name": "",
                    "type": "address"
                }
            ],
            "stateMutability": "view",
            "type": "function"
        },
        {
            "inputs": [
                {
                    "internalType": "address",
                    "name": "newOwner",
                    "type": "address"
                }
            ],
            "name": "transferOwnership",
            "outputs": [],
            "stateMutability": "nonpayable",
            "type": "function"
        },
        {
            "inputs": [
                {
                    "internalType": "address",
                    "name": "_owner",
                    "type": "address"
                }
            ],
            "name": "transferOwnershipStark",
            "outputs": [],
            "stateMutability": "nonpayable",
            "type": "function"
        },
        {
            "inputs": [],
            "name": "worldIDAddress",
            "outputs": [
                {
                    "internalType": "address",
                    "name": "",
                    "type": "address"
                }
            ],
            "stateMutability": "view",
            "type": "function"
        }
    ],
    "bytecode": "60e060405234801561000f575f80fd5b50604051610beb380380610beb83398101604081905261002e91610138565b338061005357604051631e4fbdf760e01b81525f600482015260240160405180910390fd5b61005c816100ce565b506001600160a01b038316158061007a57506001600160a01b038216155b1561009857604051639fabe1c160e01b815260040160405180910390fd5b6001600160a01b0391821660805291811660a05290811660c0525f8054909116693d0900003d0900003d0960a61b179055610178565b5f80546001600160a01b038381166001600160a01b0319831681178455604051919092169283917f8be0079c531659141344cd1fd0a4f28419497f9722a3daafe3b4186f6b6457e09190a35050565b80516001600160a01b0381168114610133575f80fd5b919050565b5f805f6060848603121561014a575f80fd5b6101538461011d565b92506101616020850161011d565b915061016f6040850161011d565b90509250925092565b60805160a05160c051610a196101d25f395f818161014801528181610316015281816104e9015261073701525f81816101b9015261042501525f818160fc015281816103450152818161051801526107660152610a195ff3fe608060405234801561000f575f80fd5b50600436106100cb575f3560e01c8063715018a611610088578063b665a5b211610063578063b665a5b2146101b4578063c3781757146101db578063c70aa727146101ee578063f2fde38b14610201575f80fd5b8063715018a6146101895780638da5cb5b14610191578063a3b801a3146101a1575f80fd5b80631c56fe40146100cf5780632091baaa146100e45780632e50556e146100f7578063380db8291461013b578063450f7ee6146101435780635701ff981461016a575b5f80fd5b6100e26100dd3660046108dc565b610214565b005b6100e26100f2366004610906565b61029c565b61011e7f000000000000000000000000000000000000000000000000000000000000000081565b6040516001600160a01b0390911681526020015b60405180910390f35b6100e2610422565b61011e7f000000000000000000000000000000000000000000000000000000000000000081565b610174620f424081565b60405163ffffffff9091168152602001610132565b6100e26105d9565b5f546001600160a01b031661011e565b6100e26101af3660046108dc565b6105ec565b61011e7f000000000000000000000000000000000000000000000000000000000000000081565b6100e26101e93660046108dc565b61066d565b6100e26101fc36600461092c565b6106ed565b6100e261020f366004610906565b61081f565b61021c610861565b5f8163ffffffff1611610242576040516390ecd8f560e01b815260040160405180910390fd5b5f805463ffffffff60a01b1916600160a01b63ffffffff8416908102919091179091556040519081527ffa2a99078de4d1b0d18381a1d80698c2798f5a987838280224694c908b4b7607906020015b60405180910390a150565b6102a4610861565b6001600160a01b0381166102cb57604051639fabe1c160e01b815260040160405180910390fd5b6040805160018082528183019092525f9160208083019080368337019050509050816001600160a01b0316815f8151811061030857610308610943565b6020026020010181815250507f00000000000000000000000000000000000000000000000000000000000000006001600160a01b0316633e3aa6c57f00000000000000000000000000000000000000000000000000000000000000006001600160a01b03165f846040518463ffffffff1660e01b815260040161038d93929190610957565b60408051808303815f875af11580156103a8573d5f803e3d5ffd5b505050506040513d601f19601f820116820180604052508101906103cc91906109aa565b5050816001600160a01b03166103e95f546001600160a01b031690565b6001600160a01b03167f8be0079c531659141344cd1fd0a4f28419497f9722a3daafe3b4186f6b6457e060405160405180910390a35050565b5f7f00000000000000000000000000000000000000000000000000000000000000006001600160a01b031663d7b0fef16040518163ffffffff1660e01b8152600401602060405180830381865afa15801561047f573d5f803e3d5ffd5b505050506040513d601f19601f820116820180604052508101906104a391906109cc565b6040805160018082528183019092529192505f91906020808301908036833701905050905081815f815181106104db576104db610943565b6020026020010181815250507f00000000000000000000000000000000000000000000000000000000000000006001600160a01b0316633e3aa6c57f00000000000000000000000000000000000000000000000000000000000000006001600160a01b03165f846040518463ffffffff1660e01b815260040161056093929190610957565b60408051808303815f875af115801561057b573d5f803e3d5ffd5b505050506040513d601f19601f8201168201806040525081019061059f91906109aa565b50506040518281527fd8f3e639501c4b5e551a948a2930f1215556bcde417c94d45746a8ec6418366f906020015b60405180910390a15050565b6105e1610861565b6105ea5f61088d565b565b6105f4610861565b5f8163ffffffff161161061a576040516390ecd8f560e01b815260040160405180910390fd5b5f805463ffffffff60c01b1916600160c01b63ffffffff8416908102919091179091556040519081527fc48e688c0a2fc42ce36ecb7204c7b77f96132d253c141ef46c2591ae5a77637290602001610291565b610675610861565b5f8163ffffffff161161069b576040516390ecd8f560e01b815260040160405180910390fd5b5f80546001600160e01b0316600160e01b63ffffffff8416908102919091179091556040519081527fc48e688c0a2fc42ce36ecb7204c7b77f96132d253c141ef46c2591ae5a77637290602001610291565b6106f5610861565b6040805160018082528183019092525f916020808301908036833701905050905081815f8151811061072957610729610943565b6020026020010181815250507f00000000000000000000000000000000000000000000000000000000000000006001600160a01b0316633e3aa6c57f00000000000000000000000000000000000000000000000000000000000000006001600160a01b03165f846040518463ffffffff1660e01b81526004016107ae93929190610957565b60408051808303815f875af11580156107c9573d5f803e3d5ffd5b505050506040513d601f19601f820116820180604052508101906107ed91906109aa565b50506040518281527f9036872f40830f3909d8006c77be543a639ad4ebb34aff720498fcd12656a292906020016105cd565b610827610861565b6001600160a01b03811661085557604051631e4fbdf760e01b81525f60048201526024015b60405180910390fd5b61085e8161088d565b50565b5f546001600160a01b031633146105ea5760405163118cdaa760e01b815233600482015260240161084c565b5f80546001600160a01b038381166001600160a01b0319831681178455604051919092169283917f8be0079c531659141344cd1fd0a4f28419497f9722a3daafe3b4186f6b6457e09190a35050565b5f602082840312156108ec575f80fd5b813563ffffffff811681146108ff575f80fd5b9392505050565b5f60208284031215610916575f80fd5b81356001600160a01b03811681146108ff575f80fd5b5f6020828403121561093c575f80fd5b5035919050565b634e487b7160e01b5f52603260045260245ffd5b5f60608201858352602085818501526060604085015281855180845260808601915082870193505f5b8181101561099c57845183529383019391830191600101610980565b509098975050505050505050565b5f80604083850312156109bb575f80fd5b505080516020909101519092909150565b5f602082840312156109dc575f80fd5b505191905056fea26469706673582212201cd240c2e1ad479f587ebb758c04b76266d79f61fbd15f81ccda2d76b101ff6964736f6c63430008140033",
    "sourcePath": "/home/dexlessx11/starknet-worldcoin-bridge/monodock/state_bridge_l1/src/StarkStateBridge.sol",
    "compiler": {
        "name": "solc",
        "version": "0.8.20+commit.a1b79de6"
    },
    "functionHashes": {
        "DEFAULT_STARK_GAS_LIMIT()": "5701ff98",
        "owner()": "8da5cb5b",
        "propagateRoot()": "380db829",
        "renounceOwnership()": "715018a6",
        "setGasLimitPropagateRoot(uint32)": "1c56fe40",
        "setGasLimitSetRootHistoryExpiry(uint32)": "a3b801a3",
        "setGasLimitTransferOwnership(uint32)": "c3781757",
        "setRootHistoryExpiry(uint256)": "c70aa727",
        "snMessaging()": "450f7ee6",
        "starkWorldIDAddress()": "2e50556e",
        "transferOwnership(address)": "f2fde38b",
        "transferOwnershipStark(address)": "2091baaa",
        "worldIDAddress()": "b665a5b2"
    },
    "gasEstimates": {
        "creation": {
            "codeDepositCost": "517000",
            "executionCost": "infinite",
            "totalCost": "infinite"
        },
        "external": {
            "DEFAULT_STARK_GAS_LIMIT()": "314",
            "owner()": "2363",
            "propagateRoot()": "infinite",
            "renounceOwnership()": "infinite",
            "setGasLimitPropagateRoot(uint32)": "27772",
            "setGasLimitSetRootHistoryExpiry(uint32)": "27849",
            "setGasLimitTransferOwnership(uint32)": "27829",
            "setRootHistoryExpiry(uint256)": "infinite",
            "snMessaging()": "infinite",
            "starkWorldIDAddress()": "infinite",
            "transferOwnership(address)": "28382",
            "transferOwnershipStark(address)": "infinite",
            "worldIDAddress()": "infinite"
        }
    }
}