{
  "abi": [
    {
      "anonymous": false,
      "inputs": [
        {
          "indexed": true,
          "internalType": "uint256",
          "name": "fromAddress",
          "type": "uint256"
        },
        {
          "indexed": true,
          "internalType": "address",
          "name": "toAddress",
          "type": "address"
        },
        {
          "indexed": false,
          "internalType": "uint256[]",
          "name": "payload",
          "type": "uint256[]"
        }
      ],
      "name": "ConsumedMessageToL1",
      "type": "event"
    },
    {
      "anonymous": false,
      "inputs": [
        {
          "indexed": true,
          "internalType": "address",
          "name": "fromAddress",
          "type": "address"
        },
        {
          "indexed": true,
          "internalType": "uint256",
          "name": "toAddress",
          "type": "uint256"
        },
        {
          "indexed": true,
          "internalType": "uint256",
          "name": "selector",
          "type": "uint256"
        },
        {
          "indexed": false,
          "internalType": "uint256[]",
          "name": "payload",
          "type": "uint256[]"
        },
        {
          "indexed": false,
          "internalType": "uint256",
          "name": "nonce",
          "type": "uint256"
        }
      ],
      "name": "ConsumedMessageToL2",
      "type": "event"
    },
    {
      "anonymous": false,
      "inputs": [
        {
          "indexed": true,
          "internalType": "uint256",
          "name": "fromAddress",
          "type": "uint256"
        },
        {
          "indexed": true,
          "internalType": "address",
          "name": "toAddress",
          "type": "address"
        },
        {
          "indexed": false,
          "internalType": "uint256[]",
          "name": "payload",
          "type": "uint256[]"
        }
      ],
      "name": "LogMessageToL1",
      "type": "event"
    },
    {
      "anonymous": false,
      "inputs": [
        {
          "indexed": true,
          "internalType": "address",
          "name": "fromAddress",
          "type": "address"
        },
        {
          "indexed": true,
          "internalType": "uint256",
          "name": "toAddress",
          "type": "uint256"
        },
        {
          "indexed": true,
          "internalType": "uint256",
          "name": "selector",
          "type": "uint256"
        },
        {
          "indexed": false,
          "internalType": "uint256[]",
          "name": "payload",
          "type": "uint256[]"
        },
        {
          "indexed": false,
          "internalType": "uint256",
          "name": "nonce",
          "type": "uint256"
        },
        {
          "indexed": false,
          "internalType": "uint256",
          "name": "fee",
          "type": "uint256"
        }
      ],
      "name": "LogMessageToL2",
      "type": "event"
    },
    {
      "anonymous": false,
      "inputs": [
        {
          "indexed": false,
          "internalType": "uint256[]",
          "name": "hashes",
          "type": "uint256[]"
        }
      ],
      "name": "MessageHashesAddedFromL2",
      "type": "event"
    },
    {
      "anonymous": false,
      "inputs": [
        {
          "indexed": true,
          "internalType": "address",
          "name": "fromAddress",
          "type": "address"
        },
        {
          "indexed": true,
          "internalType": "uint256",
          "name": "toAddress",
          "type": "uint256"
        },
        {
          "indexed": true,
          "internalType": "uint256",
          "name": "selector",
          "type": "uint256"
        },
        {
          "indexed": false,
          "internalType": "uint256[]",
          "name": "payload",
          "type": "uint256[]"
        },
        {
          "indexed": false,
          "internalType": "uint256",
          "name": "nonce",
          "type": "uint256"
        }
      ],
      "name": "MessageToL2Canceled",
      "type": "event"
    },
    {
      "anonymous": false,
      "inputs": [
        {
          "indexed": true,
          "internalType": "address",
          "name": "fromAddress",
          "type": "address"
        },
        {
          "indexed": true,
          "internalType": "uint256",
          "name": "toAddress",
          "type": "uint256"
        },
        {
          "indexed": true,
          "internalType": "uint256",
          "name": "selector",
          "type": "uint256"
        },
        {
          "indexed": false,
          "internalType": "uint256[]",
          "name": "payload",
          "type": "uint256[]"
        },
        {
          "indexed": false,
          "internalType": "uint256",
          "name": "nonce",
          "type": "uint256"
        }
      ],
      "name": "MessageToL2CancellationStarted",
      "type": "event"
    },
    {
      "inputs": [
        {
          "internalType": "uint256[]",
          "name": "msgHashes",
          "type": "uint256[]"
        }
      ],
      "name": "addMessageHashesFromL2",
      "outputs": [],
      "stateMutability": "payable",
      "type": "function"
    },
    {
      "inputs": [
        {
          "internalType": "uint256",
          "name": "toAddress",
          "type": "uint256"
        },
        {
          "internalType": "uint256",
          "name": "selector",
          "type": "uint256"
        },
        {
          "internalType": "uint256[]",
          "name": "payload",
          "type": "uint256[]"
        },
        {
          "internalType": "uint256",
          "name": "nonce",
          "type": "uint256"
        }
      ],
      "name": "cancelL1ToL2Message",
      "outputs": [
        {
          "internalType": "bytes32",
          "name": "",
          "type": "bytes32"
        }
      ],
      "stateMutability": "nonpayable",
      "type": "function"
    },
    {
      "inputs": [
        {
          "internalType": "uint256",
          "name": "fromAddress",
          "type": "uint256"
        },
        {
          "internalType": "uint256[]",
          "name": "payload",
          "type": "uint256[]"
        }
      ],
      "name": "consumeMessageFromL2",
      "outputs": [
        {
          "internalType": "bytes32",
          "name": "",
          "type": "bytes32"
        }
      ],
      "stateMutability": "nonpayable",
      "type": "function"
    },
    {
      "inputs": [],
      "name": "getMaxL1MsgFee",
      "outputs": [
        {
          "internalType": "uint256",
          "name": "",
          "type": "uint256"
        }
      ],
      "stateMutability": "pure",
      "type": "function"
    },
    {
      "inputs": [
        {
          "internalType": "bytes32",
          "name": "msgHash",
          "type": "bytes32"
        }
      ],
      "name": "l1ToL2MessageCancellations",
      "outputs": [
        {
          "internalType": "uint256",
          "name": "",
          "type": "uint256"
        }
      ],
      "stateMutability": "view",
      "type": "function"
    },
    {
      "inputs": [],
      "name": "l1ToL2MessageNonce",
      "outputs": [
        {
          "internalType": "uint256",
          "name": "",
          "type": "uint256"
        }
      ],
      "stateMutability": "view",
      "type": "function"
    },
    {
      "inputs": [
        {
          "internalType": "bytes32",
          "name": "msgHash",
          "type": "bytes32"
        }
      ],
      "name": "l1ToL2Messages",
      "outputs": [
        {
          "internalType": "uint256",
          "name": "",
          "type": "uint256"
        }
      ],
      "stateMutability": "view",
      "type": "function"
    },
    {
      "inputs": [
        {
          "internalType": "bytes32",
          "name": "msgHash",
          "type": "bytes32"
        }
      ],
      "name": "l2ToL1Messages",
      "outputs": [
        {
          "internalType": "uint256",
          "name": "",
          "type": "uint256"
        }
      ],
      "stateMutability": "view",
      "type": "function"
    },
    {
      "inputs": [],
      "name": "messageCancellationDelay",
      "outputs": [
        {
          "internalType": "uint256",
          "name": "",
          "type": "uint256"
        }
      ],
      "stateMutability": "view",
      "type": "function"
    },
    {
      "inputs": [
        {
          "internalType": "uint256",
          "name": "toAddress",
          "type": "uint256"
        },
        {
          "internalType": "uint256",
          "name": "selector",
          "type": "uint256"
        },
        {
          "internalType": "uint256[]",
          "name": "payload",
          "type": "uint256[]"
        }
      ],
      "name": "sendMessageToL2",
      "outputs": [
        {
          "internalType": "bytes32",
          "name": "",
          "type": "bytes32"
        },
        {
          "internalType": "uint256",
          "name": "",
          "type": "uint256"
        }
      ],
      "stateMutability": "payable",
      "type": "function"
    },
    {
      "inputs": [
        {
          "internalType": "uint256",
          "name": "toAddress",
          "type": "uint256"
        },
        {
          "internalType": "uint256",
          "name": "selector",
          "type": "uint256"
        },
        {
          "internalType": "uint256[]",
          "name": "payload",
          "type": "uint256[]"
        },
        {
          "internalType": "uint256",
          "name": "nonce",
          "type": "uint256"
        }
      ],
      "name": "startL1ToL2MessageCancellation",
      "outputs": [
        {
          "internalType": "bytes32",
          "name": "",
          "type": "bytes32"
        }
      ],
      "stateMutability": "nonpayable",
      "type": "function"
    }
  ],
  "bytecode": {
    "object": "0x608060405234801561001057600080fd5b50610e67806100206000396000f3fe60806040526004361061009c5760003560e01c806377c7d7a91161006457806377c7d7a91461014c5780637a98660b1461016c5780638303bd8a1461018c5780639be446bf146101a1578063a46efaf3146101c1578063db3c5270146101e157600080fd5b8063018cccdf146100a15780632c9dd5c0146100c95780633e3aa6c5146100e957806354eccba4146101115780636170ff1b1461012c575b600080fd5b3480156100ad57600080fd5b506100b66101f6565b6040519081526020015b60405180910390f35b3480156100d557600080fd5b506100b66100e4366004610a72565b61023b565b6100fc6100f7366004610abe565b610359565b604080519283526020830191909152016100c0565b34801561011d57600080fd5b50670de0b6b3a76400006100b6565b34801561013857600080fd5b506100b6610147366004610b11565b6104ee565b34801561015857600080fd5b506100b6610167366004610b6c565b61070a565b34801561017857600080fd5b506100b6610187366004610b11565b610725565b34801561019857600080fd5b506100b6610803565b3480156101ad57600080fd5b506100b66101bc366004610b6c565b610826565b3480156101cd57600080fd5b506100b66101dc366004610b6c565b610830565b6101f46101ef366004610b85565b61083a565b005b60006102366040518060400160405280602081526020017f535441524b4e45545f312e305f4d5347494e475f4c31544f4c325f4e4f4e43458152506108e6565b905090565b60405160009081906102599086903390869088908290602001610bf0565b604051602081830303815290604052805190602001209050600061027b61091a565b60008381526020919091526040902054116102dd5760405162461bcd60e51b815260206004820152601a60248201527f494e56414c49445f4d4553534147455f544f5f434f4e53554d4500000000000060448201526064015b60405180910390fd5b336001600160a01b0316857f7a06c571aa77f34d9706c51e5d8122b5595aebeaa34233bfe866f22befb973b18686604051610319929190610c4c565b60405180910390a3600161032b61091a565b6000838152602001908152602001600020600082825461034b9190610c7e565b909155509095945050505050565b600080600034116103b65760405162461bcd60e51b815260206004820152602160248201527f4c315f4d53475f4645455f4d5553545f42455f475245415445525f5448414e5f6044820152600360fc1b60648201526084016102d4565b670de0b6b3a764000034111561040e5760405162461bcd60e51b815260206004820152601760248201527f4d41585f4c315f4d53475f4645455f455843454544454400000000000000000060448201526064016102d4565b60006104186101f6565b90506104656040518060400160405280602081526020017f535441524b4e45545f312e305f4d5347494e475f4c31544f4c325f4e4f4e43458152508260016104609190610c97565b61093d565b8587336001600160a01b03167fdb80dd488acf86d17c747445b0eabb5d57c541d3bd7b6b87af987858e5066b2b888886346040516104a69493929190610caa565b60405180910390a460006104bd8888888886610970565b90506104ca346001610c97565b6104d26109b1565b6000838152602091909152604090205597909650945050505050565b60008486336001600160a01b03167f8abd2ec2e0a10c82f5b60ea00455fa96c41fd144f225fcc52b8d83d94f803ed887878760405161052f93929190610cd1565b60405180910390a460006105468787878787610970565b905060006105526109b1565b6000838152602091909152604081205491508190036105aa5760405162461bcd60e51b81526020600482015260146024820152731393d7d35154d4d051d157d513d7d0d05390d15360621b60448201526064016102d4565b60006105b46109d4565b6000848152602091909152604081205491508190036106205760405162461bcd60e51b815260206004820152602260248201527f4d4553534147455f43414e43454c4c4154494f4e5f4e4f545f52455155455354604482015261115160f21b60648201526084016102d4565b600061062a610803565b6106349083610c97565b9050818110156106865760405162461bcd60e51b815260206004820152601c60248201527f43414e43454c5f414c4c4f5745445f54494d455f4f564552464c4f570000000060448201526064016102d4565b804210156106e25760405162461bcd60e51b8152602060048201526024808201527f4d4553534147455f43414e43454c4c4154494f4e5f4e4f545f414c4c4f57454460448201526317d6515560e21b60648201526084016102d4565b60006106ec6109b1565b60008681526020919091526040902055509198975050505050505050565b60006107146109b1565b600092835260205250604090205490565b60008486336001600160a01b03167f2e00dccd686fd6823ec7dc3e125582aa82881b6ff5f6b5a73856e1ea8338a3be87878760405161076693929190610cd1565b60405180910390a4600061077d8787878787610970565b905060006107896109b1565b600083815260209190915260409020549050806107df5760405162461bcd60e51b81526020600482015260146024820152731393d7d35154d4d051d157d513d7d0d05390d15360621b60448201526064016102d4565b426107e86109d4565b60008481526020919091526040902055509695505050505050565b60006102366040518060600160405280602d8152602001610dbc602d91396108e6565b60006107146109d4565b600061071461091a565b60005b818110156108a957600083838381811061085957610859610cf5565b9050602002013560001b9050600161086f61091a565b6000838152602001908152602001600020600082825461088f9190610c97565b909155508291506108a1905081610d0b565b91505061083d565b507e31e49c5c8cbb8204c84525dfc1a145e06e35f873b703ce44df65b9516fb17a82826040516108da929190610c4c565b60405180910390a15050565b600080826040516020016108fa9190610d24565b60408051601f198184030181529190528051602090910120549392505050565b6000610236604051806060016040528060238152602001610de9602391396109f3565b6000826040516020016109509190610d24565b604051602081830303815290604052805190602001209050818155505050565b60405160009061099090339088908590899088908a908290602001610d53565b60405160208183030381529060405280519060200120905095945050505050565b6000610236604051806060016040528060268152602001610e0c602691396109f3565b6000610236604051806060016040528060308152602001610d8c603091395b60008082604051602001610a079190610d24565b60408051601f1981840301815291905280516020909101209392505050565b60008083601f840112610a3857600080fd5b50813567ffffffffffffffff811115610a5057600080fd5b6020830191508360208260051b8501011115610a6b57600080fd5b9250929050565b600080600060408486031215610a8757600080fd5b83359250602084013567ffffffffffffffff811115610aa557600080fd5b610ab186828701610a26565b9497909650939450505050565b60008060008060608587031215610ad457600080fd5b8435935060208501359250604085013567ffffffffffffffff811115610af957600080fd5b610b0587828801610a26565b95989497509550505050565b600080600080600060808688031215610b2957600080fd5b8535945060208601359350604086013567ffffffffffffffff811115610b4e57600080fd5b610b5a88828901610a26565b96999598509660600135949350505050565b600060208284031215610b7e57600080fd5b5035919050565b60008060208385031215610b9857600080fd5b823567ffffffffffffffff811115610baf57600080fd5b610bbb85828601610a26565b90969095509350505050565b60006001600160fb1b03831115610bdd57600080fd5b8260051b80838637939093019392505050565b8581528460208201528360408201526000610c0f606083018486610bc7565b979650505050505050565b81835260006001600160fb1b03831115610c3357600080fd5b8260051b80836020870137939093016020019392505050565b602081526000610c60602083018486610c1a565b949350505050565b634e487b7160e01b600052601160045260246000fd5b81810381811115610c9157610c91610c68565b92915050565b80820180821115610c9157610c91610c68565b606081526000610cbe606083018688610c1a565b6020830194909452506040015292915050565b604081526000610ce5604083018587610c1a565b9050826020830152949350505050565b634e487b7160e01b600052603260045260246000fd5b600060018201610d1d57610d1d610c68565b5060010190565b6000825160005b81811015610d455760208186018101518583015201610d2b565b506000920191825250919050565b8781528660208201528560408201528460608201528360808201526000610d7e60a083018486610bc7565b999850505050505050505056fe535441524b4e45545f312e305f4d5347494e475f4c31544f4c325f43414e43454c4c4154494f4e5f4d41505050494e47535441524b4e45545f312e305f4d5347494e475f4c31544f4c325f43414e43454c4c4154494f4e5f44454c4159535441524b4e45545f312e305f4d5347494e475f4c32544f4c315f4d41505050494e47535441524b4e45545f312e305f4d5347494e475f4c31544f4c325f4d41505050494e475f5632a264697066735822122042bf95e39d1947e211fa8cc7a27179f332d1866239677046ccc604d2baa6552c64736f6c63430008150033",
    "linkReferences": {}
  },
  "methodIdentifiers": {
    "addMessageHashesFromL2(uint256[])": "db3c5270",
    "cancelL1ToL2Message(uint256,uint256,uint256[],uint256)": "6170ff1b",
    "consumeMessageFromL2(uint256,uint256[])": "2c9dd5c0",
    "getMaxL1MsgFee()": "54eccba4",
    "l1ToL2MessageCancellations(bytes32)": "9be446bf",
    "l1ToL2MessageNonce()": "018cccdf",
    "l1ToL2Messages(bytes32)": "77c7d7a9",
    "l2ToL1Messages(bytes32)": "a46efaf3",
    "messageCancellationDelay()": "8303bd8a",
    "sendMessageToL2(uint256,uint256,uint256[])": "3e3aa6c5",
    "startL1ToL2MessageCancellation(uint256,uint256,uint256[],uint256)": "7a98660b"
  },
  "id": 28
}